:020000020000FC
:100000000C944B000C9446000C9446000C94460053
:100010000C9446000C9446000C9446000C94460048
:100020000C9446000C9446000C9446000C94460038
:100030000C94B3000C9446000C9446000C94CD0034
:100040000C94D3000C9446000C9446000C9446008B
:100050000C9446000C9446000C9446000C94460008
:100060000C9446000C9446000C9446000C944600F8
:100070000C9446000C9446000C9446000C944600E8
:100080000C9446000C9446000C9446000FEF04BB01
:1000900005EA05BBFFCF0FEF0DBF00E10EBF00E08B
:1000A0000FBD0DE00EBD04E00BBD08E30ABD00E08E
:1000B0000DBD0CBD0BE701BF0FE403BF03E107BF9C
:1000C00000E0009364000FEF04BB31E160E00FED4E
:1000D00002B950E00E9488000E947D0020916300D8
:1000E0002B71022F0071069506952B70202B0C9416
:1000F0006A0003E107BF0C946E0005B107FD40E004
:1001000007FF41E040FD0C94790000E107BF08952E
:10011000550F01B105FB50F953705230A9F00E9400
:1001200092000895603021F0613031F0623031F09A
:1001300000E004BB0C946A0078940895F8940FEFE3
:1001400004BB05BB0C946A00603021F0613029F0DB
:10015000623031F063950C946A0063950C946A00E8
:1001600060E00C946A000F930FB70F9313950E94F1
:10017000BD000F910FBF0F911895206F2095203073
:1001800011F021130895331F18F035BB10E00895C6
:100190008894339510E00C94C5000F930FB70F931C
:1001A00000E00C94D8000F930FB70F93032F007F3C
:0A01B00004BB0F910FBF0F911895CB
:00000001FF
